:100000000C94C40D0C94F50D0C94F50D0C94F50D99
:100010000C94F50D0C94F50D0C94F50D0C94F50D58
:100020000C94F50D0C94F50D0C94F50D0C94F50D48
:100030000C94F50D0C94F50D0C94F50D0C94F50D38
:100040000C94F50D0C9495360C94F50D0C94F50D5F
:100050000C94F50D0C94F50D0C94B1350C94FF5DDA
:100060000C94F50D0C9487350C9457350C94F50DC4
:100070000C94F50D0C94F50D0C94F50D0C94F50DF8
:100080000C94F50D0C94F50D0C94F50D0C94F50DE8
:100090000C94F50D0C94F50D0C94F50D0C94F50DD8
:1000A0000C94F50D0C94F50D0C94F50D0C94F50DC8
:1000B0000C94F50D0C94F50D0C94F50D0C94F50DB8
:1000C0000C94F50D0C94F50D0C94F50D0C94F50DA8
:1000D0000C94F50D0C94F50D0C94F50D0C94F50D98
:1000E0000C94F50D6472737273727372737273721F
:1000F00073727372737273727372737273727372D8
:1001000073727372737273727372737273727372C7
:10011000737206721572E871D97163717071BD7076
:10012000F771AA71B97124723372D270A4704C72D3
:100130009A717372CA718D718071737273727372F6
:100140003671467153717372737273727372737214
:10015000737206721572E871D97163717071BD7036
:10016000F771AA71B97124723372D270A4704C7293
:100170009A717372CA718D718071737273727372B6
:10018000367146715371DC0FE10FE60FF20FFE0F6F
:100190008B100A1012101A10261032103E104F1039
:1001A0005B108B10671073107F10C65CC95CB85C65
:1001B000BC5CC25C005DCD5CD15CD75CDB5CDF5CB1
:1001C000E55CE95CED5C005DF35CF75CFB5C00000A
:1001D000536F66747761726520526573657400575A
:1001E00061746368646F672052657365740042725E
:1001F0006F776E206F757420526573657400457853
:100200007465726E616C20526573657400506F770F
:1002100065725570000D467265652052414D3A0079
:10022000737461727400466F726D617420657272CE
:100230006F720057726F6E6720636865636B7375CA
:100240006D0052656C617469766520706F736974B6
:10025000696F6E696E67004162736F6C75746520BB
:10026000706F736974696F6E696E67005A5F6D6F46
:1002700076655F636F6D7000556E6B6E6F776E2085
:10028000636F6D6D616E643A0046616E7370656593
:1002900064323A00657874727564657220636F6FBA
:1002A0006C6572207370656564205B302D32353566
:1002B0005D0064697374616E636520746F2072659C
:1002C0007472616374207768656E20686561746913
:1002D0006E67205B6D6D5D0074656D702E20666FBE
:1002E000722072657472616374696F6E20776865DD
:1002F0006E2068656174696E67205B435D0074659C
:100300006D702E2073746162696C697A65207469FE
:100310006D65205B735D005A2D6F66667365742092
:100320005B73746570735D00592D6F6666736574D9
:10033000205B73746570735D00582D6F666673651E
:1003400074205B73746570735D00504944206D6167
:10035000782076616C7565205B302D3235355D0017
:1003600050494420442D6761696E0050494420493A
:100370002D6761696E0050494420502D6761696E98
:100380002F646561642D74696D6500504944206473
:1003900072697665206D696E005049442064726907
:1003A0007665206D61780068656174206D616E61AD
:1003B000676572205B302D335D0050726568656142
:1003C000742074656D702E205BC2B0435D00616364
:1003D00063656C65726174696F6E205B6D6D2F7300
:1003E0005E325D007374617274206665656472616B
:1003F0007465205B6D6D2F735D006D61782E2066D6
:1004000065656472617465205B6D6D2F735D00734B
:100410007465707320706572206D6D00436F617438
:10042000696E6720746869636B6E657373205B6DBA
:100430006D5D005A2D617869732074726176656C08
:1004400020616363656C65726174696F6E205B6DBA
:100450006D2F735E325D00592D617869732074725F
:100460006176656C20616363656C65726174696F48
:100470006E205B6D6D2F735E325D00582D61786963
:10048000732074726176656C20616363656C65725C
:100490006174696F6E205B6D6D2F735E325D005A03
:1004A0002D6178697320616363656C65726174693D
:1004B0006F6E205B6D6D2F735E325D00592D61781C
:1004C000697320616363656C65726174696F6E2026
:1004D0005B6D6D2F735E325D00582D6178697320FE
:1004E000616363656C65726174696F6E205B6D6DCD
:1004F0002F735E325D005A206D6178206C656E67E7
:100500007468205B6D6D5D0059206D6178206C65AD
:100510006E677468205B6D6D5D0058206D6178209A
:100520006C656E677468205B6D6D5D005A206D6947
:100530006E20706F73205B6D6D5D0059206D696E6C
:1005400020706F73205B6D6D5D0058206D696E20AB
:10055000706F73205B6D6D5D004D61782E205A2D9C
:100560006A65726B205B6D6D2F735D004D61782E37
:10057000206A65726B205B6D6D2F735D005A2D6173
:1005800078697320686F6D696E672066656564724F
:10059000617465205B6D6D2F735D00592D61786905
:1005A0007320686F6D696E6720666565647261743B
:1005B00065205B6D6D2F735D00582D617869732028
:1005C000686F6D696E672066656564726174652029
:1005D0005B6D6D2F735D005A2D61786973206D61BD
:1005E000782E206665656472617465205B6D6D2F81
:1005F000735D00592D61786973206D61782E2066D6
:1006000065656472617465205B6D6D2F735D005864
:100610002D61786973206D61782E2066656564723E
:10062000617465205B6D6D2F735D005A2D61786973
:100630007320737465707320706572206D6D00593E
:100640002D617869732073746570732070657220F2
:100650006D6D00582D617869732073746570732017
:10066000706572206D6D0053746F702073746570C7
:1006700070657220616674657220696E6163746969
:1006800076697479205B6D732C303D6F66665D0012
:100690004D61782E20696E61637469766520746996
:1006A0006D65205B6D732C303D6F66665D0050722A
:1006B000696E74657220616374697665205B735D31
:1006C0000046696C616D656E74207072696E746548
:1006D00064205B6D5D004261756472617465004CFD
:1006E000616E67756167650053706565644D756C13
:1006F0007469706C793A00504944204175746F7484
:10070000756E652066696E69736865642021205086
:100710006C61636520746865204B702C204B6920E8
:10072000616E64204B6420636F6E7374616E7473CA
:1007300020696E2074686520436F6E666967757204
:100740006174696F6E2E68206F7220454550524F5C
:100750004D00504944204175746F74756E65206674
:1007600061696C6564212074696D656F75740050F2
:100770004944204175746F74756E65206661696CBB
:100780006564212054656D706572617475726520B1
:10079000746F6F206869676800204B643A200020FE
:1007A0004B693A2000204B703A200020436C617363
:1007B00073696320504944002054753A2000204B4F
:1007C000753A2000206D61783A2000206D696E3AFC
:1007D000200020643A200020626961733A200050B2
:1007E0004944204175746F74756E6520737461722D
:1007F00074004E6F2063617365206C696768747361
:10080000004D617854656D703A004469616D65749E
:1008100065723A00416363656C65726174696F6EFD
:100820003A004D617853706565643A004A65726BB1
:100830003A004D617842656454656D703A005072BB
:10084000696E746572547970653A43617274657348
:1008500069616E005A54726176656C416363656CC0
:100860003A005954726176656C416363656C3A0075
:100870005854726176656C416363656C3A005A50F6
:1008800072696E74416363656C3A00595072696EA7
:1008900074416363656C3A00585072696E744163C9
:1008A00063656C3A005A53697A653A005953697A1C
:1008B000653A005853697A653A005A4D61783A00B2
:1008C000594D61783A00584D61783A005A4D696E39
:1008D0003A00594D696E3A00584D696E3A004A65C2
:1008E000726B5A3A004B656570416C697665496E6A
:1008F00074657276616C3A004A65726B58593A00B9
:100900005072696E746C696E6543616368653A0024
:10091000454550524F4D3A004175746F6C65766590
:100920006C3A005A50726F62653A00436173654CCD
:1009300069676874733A00537570706F72744C6FA6
:1009400063616C46696C616D656E746368616E6746
:10095000653A00537570706F7274473130473131AA
:100960003A005A486F6D65506F733A0059486F6D81
:1009700065506F733A0058486F6D65506F733A0059
:100980005A486F6D654469723A0059486F6D654405
:1009900069723A0058486F6D654469723A00536F46
:1009A000667477617265506F7765725377697463A7
:1009B000683A004C43443A0046616E323A31004690
:1009C000616E3A005344436172643A004865617451
:1009D00065644265643A004D6978696E674578746C
:1009E00072756465723A004E756D457874727564FF
:1009F00065723A00496E7075744275666665723A42
:100A00000042617564726174653A00436F6E666995
:100A10006775726174696F6E207265736574207496
:100A20006F2064656661756C74732E00696E666F05
:100A30003A436F6E74696E75652066726F6D2066DD
:100A40006174616C207374617465005465737469BA
:100A50006E6720666174616C206572726F7200430C
:100A60006F6E66696775726174696F6E206C6F6115
:100A70006465642066726F6D20454550524F4D2E5F
:100A800000436F6E66696775726174696F6E20737B
:100A9000746F72656420746F20454550524F4D2E1F
:100AA00000436F6C6420657874727573696F6E2093
:100AB000646973616C6C6F77656400436F6C64206C
:100AC000657874727573696F6E20616C6C6F776591
:100AD000640054726967676572696E672077617434
:100AE0006368646F672E204966206163746976616C
:100AF0007465642C20746865207072696E74657208
:100B00002077696C6C2072657365742E0057617470
:100B10006368646F672064697361626C6564004137
:100B200075746F726574726163743A00205A4A6515
:100B3000726B3A004A65726B3A0020746F20005362
:100B4000657420766F6C756D657472696320657865
:100B500074727573696F6E20666F72206578747237
:100B600075646572200044697361626C6564207607
:100B70006F6C756D657472696320657874727573D6
:100B8000696F6E20666F7220657874727564657225
:100B90002000205052454845415400205A533A0005
:100BA0002059533A0058533A005052454845415451
:100BB0003A3100504155534553544F503A31005447
:100BC0004F47474C455F4C49474854533A300053D0
:100BD0004F4654574152455F504F5745523A3100A6
:100BE0005A5F50524F42453A30004155544F4C45A0
:100BF00056454C3A3000454550524F4D3A30004131
:100C000055544F5245504F52545F54454D503A3110
:100C10000050524F47524553533A30004649524DC7
:100C2000574152455F4E414D453A52657065746972
:100C300065725F312E302E32646576204649524D02
:100C4000574152455F55524C3A68747470733A2F4D
:100C50002F6769746875622E636F6D2F726570659A
:100C6000746965722F52657065746965722D466985
:100C7000726D776172652F2050524F544F434F4C25
:100C80005F56455253494F4E3A312E30204D414325
:100C900048494E455F545950453A57616E68616FF7
:100CA0002044372045585452554445525F434F55D0
:100CB0004E543A312052455045544945525F5052A6
:100CC0004F544F434F4C3A330050696E2063616E6E
:100CD000206E6F7420626520736574206279204DE8
:100CE00034322C20697320696E2073656E736974C9
:100CF0006976652070696E73212000206973200079
:100D0000496C6C6567616C20532076616C75652059
:100D1000666F72204D34320020746F20005365746A
:100D2000206F75747075743A200000013637260301
:100D3000023C3D380E0F2E303E12130D0C0A081ADD
:100D40001C180D0E352500F00F2C00A00F3300509D
:100D50000F3A00000F4300B00E4D00600E58001017
:100D60000E6300C00D7000700D7E00200D9000D04D
:100D70000CA300800CB900300CD200E00BF0009006
:100D80000B1101400B3701F00A6301A00A980150D2
:100D90000AD601000A1E02B0096F026009D00210D3
:100DA000094003C008C103700854042008FC04D0A3
:100DB00007B70580078C0630076807E006550890DE
:100DC000064E0940064B0AF005320BA005140C50E4
:100DD00005D80C00058C0DB004180E60048F0E10A1
:100DE00004F00EC0033A0F7003730F2003BD0F8091
:100DF00002DC0F0802E90FB801F20F6801F80F18C2
:100E000001FC0FC800FF0F00004800901A4800A026
:100E10000F5800000F6C00600E8400C00DA400206D
:100E20000DD000800C1001E00B5801400BC001A058
:100E30000A4C02000A08036009F803C008280520CC
:100E400008B00680075408E006180A4006C80BA040
:100E500005300D0005400E6004FC0EC003740F2029
:100E600003BC0F8002E00FE001F40FF000FB0FC89D
:100E700000FC0FA0000400501D7C00D009A400104D
:100E800009CC008008F40010081C01B80744016870
:100E9000076C0128079401E806BC01B806E4018844
:100EA000060C026006340238065C0218068402F062
:100EB00005AC02D805D402B805FC029805240380CD
:100EC0000574035005C4032805140400056404D800
:100ED00004B404B0042C058004A40558041C06289E
:100EE00004940600040C07D803AC07A8034C087848
:100EF00003EC0848038C092003A40AD0021C0BA8A9
:100F000002AC0C2802FC0C0802C40DB801140E98A7
:100F100001B40E38012C0FE000540FB8007C0F888C
:100F200000A40F4800F40F28FFFC0FC0F9000000D8
:100F3000008C030800AE035000D603A000F703F0B6
:100F40000018044001380490015904E0017A04308B
:100F5000029A048002BB04D002FC0470032605C080
:100F600003860630079709A00F750D201C520E400E
:100F70001F1F0F6022FF0F803E0400081D900058C5
:100F8000091C01B007A801C80634023006C002C01F
:100F9000054C036805D80318056404D004F00498D0
:100FA000047C05600408063004940600042007D081
:100FB00003AC07A80338088003C40858035009305D
:100FC00003DC090803680AD802F40AB002800B881F
:100FD000020C0C6002980C3002240DF801B00DC018
:100FE000013C0E8001C80E3001540FB800B40F2828
:100FF00000E00F00000400401D900060091C01B0DB
:1010000007A801D00634023806C002C8054C0368A0
:1010100005D80318056404D804F00498047C05601E
:101020000408063004940600042007D003AC07A887
:101030000338088003C408580350093003DC09084A
:1010400003680AE002F40AB802800B88020C0C6004
:1010500002980C3002240DF801B00DC0013C0E8046
:1010600001C80E3001540FB800B40F2800E00F0083
:101070000004000016D800C006AC0178058002C04C
:1010800004540348042804E803FC049803D00550E2
:1010900003A40618037807D8024C08A80220097098
:1010A00002F4093802C80A08029C0BD001700C90A7
:1010B00001440D5001180EF800EC0E8800C00F001E
:1010C000000400681D4C00500B94005809DC0050CF
:1010D000082401A8076C012807B401C006FC0170B0
:1010E00006440228068C02F005D402B8051C0388C9
:1010F0000564035805AC033005F40310053C04E80F
:10110000048404C804CC04A804140590045C05708D
:1011100004A4055804EC053804340620047C0608B1
:1011200004C406F0030C07D8035407C8039C07B097
:1011300003E40798032C08800374087003BC085864
:1011400003040948034C09300394091803DC090817
:1011500003240AF0026C0AE002B40AC802FC0AB0D6
:1011600002440BA0028C0B8802D40B70021C0C589A
:1011700002640C4002AC0C2802F40C10023C0DF08E
:1011800001840DD801CC0DB801140E98015C0E70CD
:1011900001A40E4801EC0E1801340FD8007C0F8812
:1011A00000C40F0800FC0F00000000000000000059
:1011B000000000000000000000000000000000002F
:1011C00000000000000000000000000000000040DF
:1011D0001F450060094F0010095C00C0086B0070DB
:1011E000087D0020089200D007AC008007CC0030BA
:1011F00007DE00E006230190065E014006A601F02E
:1012000005FF01A0056D025005F30200059603B02D
:10121000045A046004400510044806C0036E0770B9
:1012200003A8082003EB09D002230B8002410C30F5
:1012300002390DE001040E9001A20E4001170FF0DB
:1012400000690FA000A20F5000C60F0000DD0FB014
:10125000FFEB0F60FF0400700DD8004804AC01588C
:10126000038002D8025403800228043802FC0400E0
:1012700002D005C801A4069801780770014C0848FF
:101280000120091801F409F000C80AC8009C0BA04D
:1012900000700C7000440D3800180E0000EC0EA811
:1012A000FFC00FE8FE0400001B540060096400103A
:1012B000097400C008840070089C002008B800D0A1
:1012C00007D8008007000130072C01E00668019074
:1012D00006AC0140060002F0056802A005E00250DD
:1012E00005740300052404B004F0046004DC051058
:1012F00004E406C0030408700330092003780B805F
:1013000002600DE001A80E4001680FA000C00F00B0
:1013100000E80F60FF0400801AD8009808AC012094
:1013200007800250065403C80528045805FC040031
:1013300005D005B004A4066804780728044C08E822
:10134000032009B003F4097003C80A38039C0BF8A2
:1013500002700CB002440D6802180E0802EC0E88F0
:1013600001C00F8800F00F00000000A00F5C0060BB
:1013700009690010097900C0088C007008A20020DB
:1013800008BD00D007DE008007050130073401E00A
:10139000066D019006B20140060702F0056D02A03D
:1013A00005E80250057B0300052B04B004F8046037
:1013B00004EB06C003350920037F0B8002650DE0B6
:1013C00001B00E40011D0FF000480FC8006C0FA0C7
:1013D00000ED0F60FFFE0F48FE69131513A51255AF
:1013E00012000000000000CD11C1107110F50F793E
:1013F0000F2D0F750E090E450D1C151C1400000055
:101400002243141F1F132E1B315072696E746572B4
:101410002073657420696E746F2064727920727510
:101420006E206D6F646520756E74696C20726573D3
:10143000746172742100206D61726B656420646553
:10144000636F75706C656400206D61726B656420FC
:10145000646566656374003A20776F726B696E67C6
:10146000003A2074656D702073656E736F7220642E
:1014700065666563740065787472756465722000D2
:101480000000420FA1071605D0030D038B022E02A8
:10149000E801B2018601630145012C011701040135
:1014A000F400000000000000000000000000000048
:1014B000000024F403D950C38EB1C2A23D96828BA2
:1014C0003582127AE372816CCB66A861015DC758E0
:1014D000EB546151204E1E4B5648C14559431A41A9
:1014E000013F093D2F3B7139CD374036C934653353
:1014F0001432D430A32F802E6B2D632C672B752ACA
:101500008E29B028DC2710274B268F25D9242B24A1
:101510008223E0224322AC211A218D200420801F47
:10152000001F841E0C1E971D261DB81C4E1CE61B9A
:10153000821B201BC11A641A0A1AB2195D190A19F2
:10154000B9186A181C18D11788174017FA16B5165B
:1015500073163116F115B31576153A150015C71423
:101560008F1458142214EE13BA138813561325132C
:10157000F612C71299126C1240121512EB11C1111A
:101580009811701148112111FB10D610B1108D1057
:101590006910461024100210E10FC00FA00F800F39
:1015A000610F420F230F060FE80ECB0EAF0E930E06
:1015B000770E5C0E410E270E0D0EF30DDA0DC10DE8
:1015C000A80D900D780D600D490D320D1B0D050D08
:1015D000EF0CD90CC30CAE0C990C850C700C5C0C88
:1015E000480C350C210C0E0CFB0BE80BD60BC40B76
:1015F000B20BA00B8E0B7D0B6B0B5A0B4A0B390BEE
:10160000290B180B080BF80AE90AD90ACA0ABB0AFF
:10161000AC0A9D0A8E0A800A710A630A550A470AB3
:10162000390A2C0A1E0A110A040AF709EA09DD0917
:10163000D009C409B709AB099F09920987097B0939
:101640006F09630958094C09410936092B0920091A
:1016500015090A090009F508EB08E008D608CC08C6
:10166000C208B808AE08A4089A08900887087D0840
:1016700074086B08610858084F0846083D0834088C
:101680002C0823081A08120809080108F807F007AF
:10169000E807E007D807D007C807C007B807B007B2
:1016A000A807A1074C20004820007A5F6D61783AB6
:1016B000007A5F6D696E3A00656E6473746F707363
:1016C000206869743A200044656275674C657665E8
:1016D0006C3A005072696E7465724D6F64653A437E
:1016E0004E43005072696E7465724D6F64653A4C7A
:1016F00061736572005072696E7465724D6F6465D6
:101700003A464646005A206A65726B20776173201C
:10171000746F6F206C6F772C2073657474696E67BB
:1017200020746F20005859206A65726B20776173AE
:1017300020746F6F206C6F772C2073657474696EE2
:101740006720746F2000526573656E643A004563CC
:10175000686F3A006F6B200020676F74200045723D
:10176000726F723A6578706563746564206C696E37
:10177000652000736B697020006F6B00204F0020A4
:101780004C00204B00204200204100204800204314
:1017900000204400205200204A0020490020500030
:1017A000205300204600204500205A0020590020E8
:1017B00058005265717565737453746F703A0020E8
:1017C0005072696E7465722073746F7070656420F6
:1017D000616E642068656174657273206469736109
:1017E000626C65642064756520746F207468697329
:1017F000206572726F722E20466978206572726F52
:101800007220616E642072657374617274207769EE
:101810007468204D3939392E00666174616C3A0064
:10182000436F6E6669673A00496E666F3A004572AB
:10183000726F723A00494E46004E414E0050726F30
:10184000746F636F6C2076657273696F6E20636866
:10185000616E6765642C20757067726164696E677C
:1018600000446574656374656420454550524F4D6E
:101870002076657273696F6E3A00486561746572AF
:101880002F73656E736F72206661696C7572650087
:1018900044697361626C696E6720616C6C20686575
:1018A00061746572732064756520746F206465745B
:1018B00065637465642073656E736F72206465661A
:1018C0006563742E00206465672E204300206D65DB
:1018D00061737572656420004572726F723A436F6E
:1018E000756C64206E6F7420686F6C642074656D15
:1018F00070657261747572652000206D73002061DF
:101900006674657220004572726F723A54656D702C
:101910002E2072616973656420746F20736C6F7719
:101920002E2052697365203D20004F6E652068654A
:1019300061746572207365656D73206465636F758E
:10194000706C65642066726F6D20746865726D6975
:1019500073746F72202D2064697361626C696E67A5
:1019600020616C6C20666F722073616665747921EA
:101970000020453A00205A3A0020593A00583A00CF
:1019800020524157002044303A0020403A00202F96
:1019900000543A00466C6F774D756C7469706C79C1
:1019A0003A00206D696E0020686F75727320002008
:1019B0006461797320005072696E74696E67207477
:1019C000696D653A006D20005072696E746564201F
:1019D00066696C616D656E743A00457874722E00AC
:1019E0004550523A3320004550523A32200045507B
:1019F000523A3120004550523A30200053656C6510
:101A0000637445787472756465723A003A00546183
:101A10007267657445787472000000210024002705
:101A2000002A002D003000330001010000040107EE
:101A3000010A0100002200250028002B002E0031A1
:101A400000340002010000050108010B0100002024
:101A5000002300260029002C002F00320000010086
:101A60000003010601090105050505070508080829
:101A700008020202020A0A0808040404040101011F
:101A80000101010101030303030303030304070727
:101A9000070C0C0C0C0C0C0C0C02020202060606C5
:101AA00006060606060B0B0B0B0B0B0B0B010210AD
:101AB0002020080810204010204080020102010868
:101AC0000402010102040810204080804020100818
:101AD0000402018004020180402010080402010871
:101AE00004020101020408102040800102040810D1
:101AF00020408000000A0B02090C0D0E08070304A9
:101B000001000000000000000000000000000000D4
:101B100000000000000000000000000000000012B3
:101B20001110000000000000000000000000000094
:101B300000000000000000000046616E73706565E3
:101B4000643A004361703A004E414E494E4954593F
:101B5000494E46CDCCCC3D0AD7233C17B7D1387778
:101B6000CC2B329595E6241FB14F0A00002041008E
:101B700000C84200401C4620BCBE4CCA1B0E5AAED8
:101B8000C59D74007C74657411241FBECFEFD1E233
:101B9000DEBFCDBF00E00CBF13E0A0E0B2E0E4EC9C
:101BA000F9EF00E00BBF02C007900D92A43AB10715
:101BB000D9F72EE0A4EAB3E001C01D92AE37B20718
:101BC000E1F71DE0C3ECDDE000E006C0219701096C
:101BD000802FFE010E948675C23CD10780E0080775
:101BE000A9F70E94CB610C94D17C0C9400002F9239
:101BF0003F924F925F926F927F928F929F92AF929D
:101C0000BF92CF92DF92EF92FF920F931F93CF93E9
:101C1000DF93CDB7DEB7E0970FB6F894DEBF0FBE07
:101C2000CDBF2C01DC0116968D919C9117978D3CB0
:101C3000910509F4D4C708F093C08D36910509F4D5
:101C40005DC408F049C08435910509F4E1C228F566
:101C50008035910509F4BEC278F48330910510F403
:101C60000C9438218630910510F40C94F1248A9755
:101C700009F44CC10C9438218235910509F4BFC296
:101C800008F0C1C20E944354269A80914F0D8F7B69
:101C900080934F0D2E9A0C94F1248836910509F407
:101CA000ACC370F48C35910509F40AC383369105F1
:101CB00009F44EC38535910511F00C943821DCC22E
:101CC0008A36910509F4D5C408F4F3C38B3691051F
:101CD00009F4ECC40C9438218B39910509F4A6C49D
:101CE00010F58437910511F40C94A02060F482372C
:101CF000910509F45BC508F02BC58F36910509F4F1
:101D0000F6C40C9438218737910509F4A6C58C38A0
:101D1000910511F40C94F1248537910511F00C9480
:101D200038210C94F124893C910509F456C670F4CD
:101D30008E3B910509F46EC4883C910509F4FBC5FE
:101D40008A3A910511F00C943821A9C5F20120813D
:101D500031818B3C910509F4D6C608F497C6E8C6D4
:101D6000823CF1E09F0711F40C94BA1D08F073C097
:101D70008E3231E0930711F40C94D51838F58C3D70
:101D8000910511F40C94361878F48F3C910511F4F8
:101D90000C94B31710F40C944F17813D910511F476
:101DA0000C941A180C943821823E910511F40C946D
:101DB000B018893151E0950711F40C94BD188D3D90
:101DC000910511F00C9438210C9488188836A1E004
:101DD0009A0711F40C94BA1A98F48E35E1E09E0734
:101DE00011F40C94F1248336F1E09F0711F40C9464
:101DF000B01A8F32914011F00C9438210C94F818DD
:101E0000813931E0930711F40C94121D823941E0BD
:101E1000940711F40C94741D8039914011F00C94C6
:101E20003821E0960FB6F894DEBF0FBECDBFDF912C
:101E3000CF911F910F91FF90EF90DF90CF90BF90C7
:101E4000AF909F908F907F906F905F904F903F905A
:101E50002F900C9443548331A2E09A0711F40C9410
:101E6000E11F38F5843FE1E09E0711F40C94D41D86
:101E700080F4843C21E0920711F40C94BA1D10F414
:101E80000C94B61D853C914011F40C94BA1D0C9431
:101E90003821863F51E0950711F40C94E71D10F4AA
:101EA0000C94DA1D8231924011F40C94A91F0C9409
:101EB00038218E39E2E09E0711F40C94BC2098F48E
:101EC0008B3122E0920711F40C944320893532E0E3
:101ED000930711F40C9471208431924011F00C940A
:101EE00038210C94EF1F8B3853E0950710F40C94B5
:101EF00038218F38A3E09A0710F40C94F124873E20
:101F0000934011F40C94E5200C943821F2012081C7
:101F1000318133FD02C00C94F124F2A0CF2CD3A068
:101F2000EAE2FDE04BE14E0F849190E08C159D05B7
:101F300009F434C131964E13F7CFD7FC2FC132FFCD
:101F400004C1F201868D978DA0A1B1A18F3F9105AB
:101F5000A105B10511F008F0F5C061E08F2D0E94D8
:101F60007F5DD2015E966C918F2D0E94505DF201D3
:101F7000168D078DA12EB02E61E08F2D0E947F5D02
:101F8000A114B10409F4CBC0FFEFAF16B10409F4FA
:101F9000C8C0F601FF27ED50F54EE4918E2F90E07A
:101FA000FC013197E231F10508F0B5C08827ED5307
:101FB000FF4F8F4F0C94867584B5806884BD17BD24
:101FC000B4C084B5806284BD18BDAFC0809180006C
:101FD000806880938000812F902F90938900809358
:101FE0008800A3C080918000806280938000812F50
:101FF000902F90938B0080938A0097C080918000EF
:10200000886080938000812F902F90938D00809323
:102010008C008BC08091B00080688093B0001093DA
:10202000B30083C08091B00080628093B0001093B1
:10203000B4007BC080919000806880939000812FD5
:10204000902F90939900809398006FC0809190009A
:10205000806280939000812F902F90939B008093BB
:102060009A0063C080919000886080939000812FD7
:10207000902F90939D0080939C0057C08091A0006A
:1020800080688093A0008091A0008F7B8093A00047
:10209000812F902F9093A9008093A80046C0809133
:1020A000A00080628093A000812F902F9093AB00BE
:1020B0008093AA003AC08091A00088608093A0001D
:1020C000812F902F9093AD008093AC002EC0809113
:1020D0002001806880932001812F902F9093290107
:1020E0008093280122C0809120018062809320018A
:1020F000812F902F90932B0180932A0116C08091FD
:102100002001886080932001812F902F90932D01D2
:1021100080932C010AC020E8A216B10414F460E0F8
:1021200001C061E08F2D0E94505DB6018DE19DE000
:102130000E941B4BD2015E966D917C915F9788E166
:102140009DE012C080E09DE02BC062E08F2D0E94D8
:102150007F5DB60188E19DE00E941B4B8F2D0E94A0
:10216000285DBC018BEF9CE0E0960FB6F894DEBFD3
:102170000FBECDBFDF91CF911F910F91FF90EF90D8
:10218000DF90CF90BF90AF909F908F907F906F9097
:102190005F904F903F902F900C94F74A89EC9CE011
:1021A000E0960FB6F894DEBF0FBECDBFDF91CF91A2
:1021B0001F910F91FF90EF90DF90CF90BF90AF9065
:1021C0009F908F907F906F905F904F903F902F9057
:1021D0000C94284B0E9443540E94F35D6093270D9A
:1021E0007093280D8093290D90932A0D269A809143
:1021F0004F0D806480934F0D2E980C94F124109213
:1022000030040C94F12481E0809330040C94F12488
:10221000F2018081918192FF12C0268D378D40A1FD
:1022200051A1A8EEB3E00E94B87C6093530570936F
:10223000540580935505909356050C94F1240E9403
:10224000435481E0E0960FB6F894DEBF0FBECDBFD9
:10225000DF91CF911F910F91FF90EF90DF90CF9082
:10226000BF90AF909F908F907F906F905F904F90B6
:102270003F902F900C94A541D2018D919C91119784
:1022800092FF14C05E962D913D914D915C91919776
:10229000A8EEB3E00E94B87C609357057093580590
:1022A0008093590590935A050C94F1241092570588
:1022B000109258051092590510925A050C94F12469
:1022C000F201808183FF0CC042855385648575854A
:1022D000409301035093020360930303709304033C
:1022E00084FF0FC0D2011E964D915D916D917C913E
:1022F000519740930503509306036093070370932F
:10230000080385FF0DC0F20182899389A489B589EC
:102310008093090390930A03A0930B03B0930C03DB
:102320000E94AB42D2018C9186FD02C00C94F12434
:102330002091500D3091510D56968D919D910D909B
:10234000BC91A02DF90185879687A787B08BF0C532
:10235000D201ED91FC911197F2FF0DC05E962D9187
:102360003D914D915C919197A8EEB3E00E94B87CAD
:102370006B017C0106C010E1C12E17E2D12EE12CC9
:10238000F12CE3FD5F9AF201808184FD8A9AD201EB
:102390008C9185FF05C080910801816080930801C0
:1023A0000E94F35DC60ED71EE81EF91E0E94F35D63
:1023B000A7019601261B370B480B590BDA01C901FF
:1023C000803A9648A140B10518F40E944742EECFEA
:1023D000D2018C9183FD5F98F201808184FD8A98FF
:1023E000D2018C9185FD02C00C94F12480910801EA
:1023F0008E7F809308010C94F1240E946C3B182F6F
:1024000081110C94F1240E94F35D6093270D709369
:10241000280D8093290D90932A0D8091110383FF3D
:1024200002C00C94F124F2018081918193FF02C0DB
:102430000C945D2192FF0AC0868D978DA0A1B1A159
:10244000892B8A2B8B2B11F40C945D21D2018D9159
:102450009C9111971296ED90FC90139792FF11C0EA
:102460009C012227317091FD02C00C946121F20180
:10247000EC5AFF4F8081882311F40C94B7210C94FF
:102480006121E5FC02C00C94F124EE24B4E0FB22AF
:102490009C012227317091FD02C00C948221F2012F
:1024A000EC5AFF4F8081882311F40C94D3210C94B3
:1024B00082211092A202F20180819181B3E096956F
:1024C0008795BA95E1F78170E0960FB6F894DEBF74
:1024D0000FBECDBFDF91CF911F910F91FF90EF9075
:1024E000DF90CF90BF90AF909F908F907F906F9034
:1024F0005F904F903F902F900C94B94F0E946C3B8F
:10250000D82E81110C94F1240E94F35D6093270D65
:102510007093280D8093290D90932A0D80911103BB
:1025200083FF02C00C94F1240E9443540091500D8B
:102530001091510DD2014D915C9151FF08C0F201F3
:10254000EC5AFF4F8081811102C000E012E0F201DD
:10255000E280F38052FF2CC050FF0EC0DD24D394E4
:1025600020E030E0A901628D738D848D958D0E94ED
:10257000EB7618160CF0D12CD8011C91F201668D67
:10258000778D80A191A10E94307BF2FE08C0F201FC
:10259000E25BFF4F208131814281538103C020E003
:1025A00030E0A9010E949B7501E02D2D412F30C024
:1025B000E5FE30C050FF0EC0DD24D39420E030E0B3
:1025C000A901628D738D848D958D0E94EB7618160E
:1025D0000CF0D12CF801C080E858FF4F6081718168
:1025E000072E000C880B990B0E94307BF2FE08C06E
:1025F000F201E25BFF4F208131814281538103C0B0
:1026000020E030E0A9010E949B7501E02D2D4C2DAA
:102610000E94C8580E94F35D6093270D7093280DA7
:102620008093290D90932A0D0C94F124D2012D91C1
:102630003C9111978091450432FF0CC05E964D91FC
:102640005D916D917C919197452B462B472B11F411
:102650000C94EE248061809345040E94F35D6093A6
:10266000CA047093CB048093CC049093CD040C9453
:10267000F1248091600483FF02C00C94F124F201E4
:1026800020813181C9018827947033FD02C00C94E8
:102690001C2242A153A164A175A1413051056105DD
:1026A000710511F00C941C220C940122809160049D
:1026B00083FF02C00C94F124D2018D919C9111975B
:1026C00093FD02C00C94572292968D919D910D908E
:1026D000BC91A02D0197A105B10511F00C945722D2
:1026E00080E00E94667460E070E00C945322F20176
:1026F0008081918192FF03C0868D0E942446D20181
:102700008D919C91119793FF13C092968D919D91FD
:102710000D90BC91A02D20911103181619061A06D0
:102720001B0614F4822B02C0815082230E9424468F
:102730008091110383FD02C00C94F12400E020E09D
:1027400040E060E070E0CB010E94C8580C94F12496
:102750001092A2028CE19CE00E94264B81E19CE059
:102760000E94BF618FEF9BE00E94BF6186EF9BE0FC
:102770000E94BF618AEE9BE00E94BF6180EE9BE0F9
:102780000E94BF618FEC9BE00E94BF618FEB9BE0DA
:102790000E94BF6183EB9BE00E94BF6189EA9BE0DE
:1027A0000E94BF610E9473540C94BA1D1092A20241
:1027B0000E94ED4EF2018081918192FD02C00C9445
:1027C000F124868D978DA0A1B1A1892B8A2B8B2B0B
:1027D00011F40C94F12440913B0D50913C0D60910B
:1027E0003D0D70913E0D85EA9BE00E94034B4091A8
:1027F0003F0D5091400D6091410D7091420D80EA66
:102800009BE00E94034BC090430DD090440DE0909C
:10281000450DF090460D8BE99BE00E94F649C701FB
:10282000B6010E94DC49E0960FB6F894DEBF0FBEF9
:10283000CDBFDF91CF911F910F91FF90EF90DF906F
:10284000CF90BF90AF909F908F907F906F905F9050
:102850004F903F902F900C94B34F1092A2020E9481
:1028600043540E9436350E943635E0960FB6F894F0
:10287000DEBF0FBECDBFDF91CF911F910F91FF90B3
:10288000EF90DF90CF90BF90AF909F908F907F9010
:102890006F905F904F903F902F900C944246D201E2
:1028A0008D919C91882796708115964041F4F20194
:1028B000EC5AFF4F8081882311F40C94732210E0AE
:1028C000F2018281938191FF10C060E070E082E9A3
:1028D0009BE00E941B4B60917802709179028CE022
:1028E0009AE10E941B4B0E94B34F112311F40C94E8
:1028F000F124609178027091790286E291E00E9461
:10290000847CE0960FB6F894DEBF0FBECDBFDF919A
:10291000CF911F910F91FF90EF90DF90CF90BF90DC
:10292000AF909F908F907F906F905F904F903F906F
:102930002F900C94AE58E091500DF091510D808184
:10294000D2014D915C91282F51FF07C0F201EC5A42
:10295000FF4F9081911101C080E0F201928192FFBE
:1029600005C0C6A4D7A4E0A8F1A803C0C12CD12CEF
:10297000760193FF07C0D201D296CD90DD90ED9005
:10298000FC90D597082F10E0B5E88B9FF00111243B
:10299000E058FD4FC082D182E282F382821306C0EA
:1029A0008091BB039091BC030E94764E20E030E002
:1029B000A901C701B6010E942A7BB801811103C099
:1029C00086E69BE0D1CB8FE39BE00E941B4B22E08D
:1029D000B701A6018AE39BE013C3F201808183FF64
:1029E0000CC042855385648575854093F0025093F1
:1029F000F1026093F2027093F30284FF0FC0D201E0
:102A00001E964D915D916D917C9151974093F4028A
:102A10005093F5026093F6027093F70285FF0DC0A4
:102A2000F20142895389648975894093F802509371
:102A3000F9026093FA027093FB0286FF0DC0F20167
:102A400086899789A08DB18D8093FC029093FD02B9
:102A5000A093FE02B093FF02E0960FB6F894DEBF9B
:102A60000FBECDBFDF91CF911F910F91FF90EF90DF
:102A7000DF90CF90BF90AF909F908F907F906F909E
:102A80005F904F903F902F900C94AB4223FF0DC06E
:102A9000F20182859385A485B5858093E0029093A9
:102AA000E102A093E202B093E30224FF0DC0F20121
:102AB00086859785A089B1898093E4029093E50289
:102AC000A093E602B093E70225FF0DC0F2018289D0
:102AD0009389A489B5898093E8029093E902A09331
:102AE000EA02B093EB0226FFB7CFF20186899789FD
:102AF000A08DB18D8093EC029093ED02A093EE0235
:102B0000B093EF02A9CF32FF0FC081E0468D578D01
:102B100060A171A14F3F51056105710509F480E085
:102B20008093C9040C94F1241092C9040C94F124EC
:102B3000E091500DF091510D32FD02C0B9960DC0DB
:102B4000F201868D978DA0A1B1A1892B8A2B8B2BA9
:102B500011F00C94F124E9E2F2E023FF0BC0D20162
:102B60001A964D915D916D917C911D97408F518F7B
:102B7000628F738F24FF0BC0D2011E964D915D9121
:102B80006D917C915197448F558F668F778F25FF7C
:102B90000BC0D20152964D915D916D917C915597EC
:102BA00040A351A362A373A3CF01E0960FB6F8949C
:102BB000DEBF0FBECDBFDF91CF911F910F91FF9070
:102BC000EF90DF90CF90BF90AF909F908F907F90CD
:102BD0006F905F904F903F902F900C9444551092BF
:102BE000A2026FED76E084E094E00E940A5866ED60
:102BF00076E08BE490E00E94505843E061EC76E090
:102C000081E890E00E946F586EEA76E08DE790E0F0
:102C10000E94505860E976E08FE490E00E9450589E
:102C200067E676E083E590E00E94505844E063E573
:102C300076E083E090E00E946F5844E06FE376E036
:102C400087E090E00E946F5844E06BE276E08BE012
:102C500090E00E946F5843E06FE076E08FE090E0F4
:102C60000E946F5843E063EF75E083E190E00E94BB
:102C70006F5843E067ED75E087E190E00E946F5880
:102C800043E069EB75E08BE190E00E946F5843E010
:102C90006BE975E08FE190E00E946F5843E06DE7CB
:102CA00075E083E290E00E946F5843E06CE675E0C7
:102CB00087E290E00E946F5843E069E575E08FE29B
:102CC00090E00E946F5843E06AE475E085E890E088
:102CD0000E946F5843E06BE375E089E890E00E9442
:102CE0006F5843E06CE275E08DE890E00E946F5809
:102CF00043E06AE175E081E990E00E946F5843E0AB
:102D000068E075E085E990E00E946F5843E066EF67
:102D100074E089E990E00E946F5843E069ED74E047
:102D200083E390E00E946F5843E06CEB74E087E32C
:102D300090E00E946F5843E06FE974E08BE390E00D
:102D40000E946F5843E06BE774E08FE390E00E94CD
:102D50006F5843E067E574E083E490E00E946F58A9
:102D600043E063E374E087E490E00E946F5843E03F
:102D70006CE174E080E094E00E946F5843E06FE003
:102D800074E088EC90E00E946F5843E06AEF73E0D3
:102D90008CEC90E00E946F5843E064EE73E080EDAD
:102DA00090E00E946F5843E06EEC73E084ED90E099
:102DB0000E946F586AEB73E086E291E00E942D5802
:102DC00067EA73E088ED90E00E940A5869E973E0D1
:102DD00089ED90E00E940A586BE873E085EF90E07F
:102DE0000E940A5844E066E773E08AED90E00E9492
:102DF0006F5844E06BE673E08EED90E00E946F58F0
:102E000044E060E673E082EE90E00E946F586AE46E
:102E100073E086EE90E00E940A5869E373E087EE63
:102E200090E00E94505868E273E08BEE90E00E94C0
:102E3000505867E173E082E291E00E9450586EEFD3
:102E400072E08FEE90E00E942D5868ED72E08AEFFC
:102E500090E00E942D5862EB72E08CEF90E00E94AF
:102E60002D5864E972E08EEF90E0E0960FB6F8948A
:102E7000DEBF0FBECDBFDF91CF911F910F91FF90AD
:102E8000EF90DF90CF90BF90AF909F908F907F900A
:102E90006F905F904F903F902F900C940A58109233
:102EA000A202F201808191819C0122273A702115B2
:102EB0003A40B9F4F201EC5AFF4F2081213011F46D
:102EC0000C94852210F00C94922292FF0AC0D20139
:102ED0005E966C915E9792968D919C9193970E94CD
:102EE000717C0E949758682F88E690E06EA70E9438
:102EF000567C6EA5681721F088E690E00E94717CF0
:102F0000D20192964D915D916D917C919597485C1F
:102F100051096109710981E0483552406105710527
:102F200008F080E00E943C4BE091500DF091510D73
:102F30008081E0960FB6F894DEBF0FBECDBFDF9163
:102F4000CF911F910F91FF90EF90DF90CF90BF90A6
:102F5000AF909F908F907F906F905F904F903F9039
:102F60002F900C948B55F201808183FF0CC0428519
:102F70005385648575854093B7035093B803609378
:102F8000B9037093BA0386FF11C02091500D3091A0
:102F9000510DF20186899789A08DB18DF901838F3A
:102FA000948FA58FB68F80810E948B55D2018C9112
:102FB00085FF0EC052968D919D910D90BC91A02DD4
:102FC0008093B3039093B403A093B503B093B60377
:102FD0004091B7035091B8036091B9037091BA035F
:102FE00022E084E39BE00E94AB4A4091B3035091FE
:102FF000B4036091B5037091B60322E08CE29BE0CC
:10300000E0960FB6F894DEBF0FBECDBFDF91CF9133
:103010001F910F91FF90EF90DF90CF90BF90AF90F6
:103020009F908F907F906F905F904F903F902F90E8
:103030000C94C44AF2018081918192FD02C00C94EB
:10304000F12461E0068D178D20A131A180916004EB
:10305000012B022B032B19F460E08D7F01C08260ED
:103060008093600470E08FE19BE07EC8D2018D9177
:103070009C91119792FF07C05E968D919D910D9046
:10308000BC91A02D04C084E690E0A0E0B0E08C01EB
:103090008931910534F0853F91402CF004EF11E027
:1030A00002C009E110E0B801012E000C880B990B59
:1030B0000E94307B6B017C0180912E0490912F0443
:1030C000BC01990F880B990B0E94307B9B01AC01CE
:1030D000C701B6010E94FF759B01AC0160914B0DC9
:1030E00070914C0D80914D0D90914E0D0E948F7BF3
:1030F00060934B0D70934C0D80934D0D90934E0D3E
:1031000010932F0400932E04B80188EE96E02CC88B
:10311000F2018081918192FF05C0868D978DA0A1DB
:10312000B1A104C084E690E0A0E0B0E0E0960FB664
:10313000F894DEBF0FBECDBFDF91CF911F910F91ED
:10314000FF90EF90DF90CF90BF90AF909F908F90C7
:103150007F906F905F904F903F902F900C94764EA1
:10316000D2018D919C919C0122273C7021153C40FD
:1031700011F00C94F1240C94BA22F201808183FFA7
:1031800006C00E944F548DE09BE00C941E2182EDFE
:103190009AE00E94324B80E00E94A54168EC70E00A
:1031A00080E090E00E94BB5DFFCFD2012D913C9169
:1031B000119780914F0D32FF0AC05E964D915D913F
:1031C0006D917C919197452B462B472B19F0806888
:1031D00091E002C08F7790E080934F0D992321F00A
:1031E0008BEB9AE00C941E2181EA9AE00C941E214C
:1031F000F2010190F081E02DF9A7E8A7F2FF06C0E7
:10320000D2015E960D911C915F9702C006E910E015
:10321000F201828182FF09C066A577A580A991A9E4
:103220000E9467767A87698704C025E030E03A8794
:103230002987B801110F880B990B0E94307B6B878F
:103240007C878D879E870E94F35D4B015C012091F6
:103250004D0230E035952795C901330FAA0BBB0B02
:1032600089839A83AB83BC83A985BA85A530B105D0
:103270003CF055974CF024E130E03A87298704C0B0
:10328000E5E0F0E0FA87E9878FED97E00E94324BA6
:103290001092DF028091290290E0FC01E354FC4F80
:1032A00020914D02208380917E0280937F0289814C
:1032B0009A81AB81BC818D839E83AF83B88788A2BE
:1032C00099A2AAA2BBA28AA69BA6ACA6BDA61F864F
:1032D000188A90EA998BA1E4AA8B1B8A1C8AB0EA0F
:1032E000BD8BE1E4EE8B1C8E1D8E1E8E1F8E188E04
:1032F000198E1A8E1B8EC12CD12C76011CA21DA2F8
:103300001EA21FA2F1E0FF8B212C312C21E0209383
:10331000290581E00E940C5083E090E00E949D3FCF
:1033200089E292E00E94A63B00912F023091300288
:103330003FA74091310248AB109132020E94F35DE9
:103340002B013C01202F3FA548A9512F6B897C8977
:103350008D899E890E942A7B87FF06C00B8B5FA503
:103360005C8B88A98D8B1E8B202F3FA548A9512FE0
:103370006F85788989899A890E942A7B87FD06C092
:103380000F879FA5988BA8A9A98B1A8BBF892B851E
:103390003C854D855E85602F7FA588A9912FBB2335
:1033A00059F10E94EB761816ECF5D301C201881989
:1033B0009909AA09BB09853CE9E09E07A105B10569
:1033C00088F1E0912902F0E0E354FC4F29813D812E
:1033D000231B20838CA39DA3AEA3BFA34B854B8B44
:1033E0005C855C8B8D858D8B9E859E8B48A259A2BA
:1033F0006AA27BA21F8A16C00E942A7B87FF12C086
:10340000D301C20128A139A14AA15BA1821B930B60
:10341000A40BB50B893833E19307A105B10510F072
:103420000C94EE2220E030E040E252E46B857C8593
:103430008D859E850E949B759B01AC01602F7FA5A9
:1034400088A9912F0E94EB7618161CF48FE697E05E
:1034500030C0D301C2012AA53BA54CA55DA5821BA6
:10346000930BA40BB50B893E9340A105B10538F031
:1034700080E00E94B94F4AA65BA66CA67DA6440CCC
:10348000551C661C771C88A199A1AAA1BBA1481A4A
:10349000590A6A0A7B0A481859086A087B0891E8A1
:1034A00049169FE4590692E16906710448F082E5E5
:1034B00097E00E94284B8FEF8093DF020C94F12459
:1034C000A985BA85A215B3050CF020CF87EF96E049
:1034D0000E94324B8FEF8093DF02B8A5B3FD02C08C
:1034E0000C94F124C0924102D0924202E092430235
:1034F000F0924402288D398D4A8D5B8D20934502D0
:103500003093460240934702509348028C8D9D8D24
:10351000AE8DBF8D8093490290934A02A0934B02D7
:10352000B0934C0281E080932C0280E0E0960FB6CD
:10353000F894DEBF0FBECDBFDF91CF911F910F91E9
:10354000FF90EF90DF90CF90BF90AF909F908F90C3
:103550007F906F905F904F903F902F900C945247C8
:10356000D2018D919C9192FF02C00C94F12482EFC4
:1035700097E0D5C41092A202C0908902D0908A022E
:10358000E0908B02F0908C0280E298E10E94F64974
:1035900081E09AE00E94F649C701B6010E94DC4929
:1035A0000E94B34F6FE770E084EF99E00E945E4E97
:1035B00061E070E087EE99E00E945E4E60E070E0AE
:1035C00087ED99E00E945E4E60E070E08CEC99E03F
:1035D0000E945E4E60E070E084EC99E00E945E4ED6
:1035E00061E070E08FEB99E00E945E4E80E298E12E
:1035F0000E94F64988EB99E00E94264B60E070E05B
:1036000083EB99E00E945E4E61E070E08EE999E004
:103610000E945E4E6FEF7FEF84E999E00E945E4E5C
:103620006FEF7FEF8AE899E00E945E4E6FEF7FEFC9
:1036300080E899E00E945E4E20E030E0A9016091B0
:103640004E0470914F0480915004909151040E9457
:103650009B75AB01BC0122E086E799E00E943C4EDD
:1036600020E030E0A90160914A0470914B04809100
:103670004C0490914D040E949B75AB01BC0122E06B
:103680008CE699E00E943C4E20E030E0A901609178
:1036900046047091470480914804909149040E9427
:1036A0009B75AB01BC0123E082E699E00E943C4E91
:1036B00060E070E083E599E00E945E4E60E070E0BB
:1036C00087E399E00E945E4E60E070E08BE299E053
:1036D0000E945E4E60E070E083E299E00E945E4EE0
:1036E00060E070E088E199E00E945E4E61E070E089
:1036F00080E199E00E945E4E60E170E080E099E038
:103700000E945E4E4091B7035091B8036091B90397
:103710007091BA0322E088EF98E00E943C4E60E08E
:1037200070E085EE98E00E945E4E4091B3035091A8
:10373000B4036091B5037091B60322E08EED98E07A
:103740000E943C4E40914E0450914F0460915004B1
:103750007091510422E088ED98E00E943C4E409127
:103760004A0450914B0460914C0470914D0422E046
:1037700082ED98E00E943C4E4091460450914704EF
:10378000609148047091490422E08CEC98E00E941A
:103790003C4E20912A0430912B0440912C045091EE
:1037A0002D0460914E0470914F04809150049091CB
:1037B00051040E949B75AB01BC0122E086EC98E0AD
:1037C0000E943C4E20912604309127044091280409
:1037D0005091290460914A0470914B0480914C04EB
:1037E00090914D040E949B75AB01BC0122E080ECDE
:1037F00098E00E943C4E2091220430912304409195
:1038000024045091250460914604709147048091EE
:103810004804909149040E949B75AB01BC0122E0D1
:103820008AEB98E00E943C4E40912A0450912B0470
:1038300060912C0470912D0422E083EB98E00E94AB
:103840003C4E4091260450912704609128047091C9
:10385000290422E08CEA98E00E943C4E4091220428
:1038600050912304609124047091250422E085EA9C
:1038700098E00E943C4E4091F0025091F10260911C
:10388000F2027091F30222E088E998E00E943C4E37
:103890004091F4025091F5026091F6027091F702A6
:1038A00022E08BE898E00E943C4E4091F802509153
:1038B000F9026091FA027091FB0222E08EE798E033
:1038C0000E943C4E4091E0025091E1026091E20280
:1038D0007091E30222E080E798E00E943C4E409124
:1038E000E4025091E5026091E6027091E70222E065
:1038F00082E698E00E943C4E4091E8025091E90235
:103900006091EA027091EB0222E084E598E00E9467
:103910003C4E80E298E10E94F6498EE398E00E94D6
:10392000264B68E770E082E398E00E945E4E80E2FA
:1039300098E10E94F64961E070E08AED99E10E9409
:103940001B4B8AE30E94CB3D40911B0250911C020D
:1039500060911D0270911E0222E08CE298E00E94AC
:10396000C44A80E298E10E94F64961E070E08AED85
:1039700099E10E941B4B8AE30E94CB3D40911302C8
:1039800050911402609115027091160222E082E2B9
:1039900098E00E94C44A80E298E10E94F64961E002
:1039A00070E08AED99E10E941B4B8AE30E94CB3DB7
:1039B00040911702509118026091190270911A02F9
:1039C00022E084E198E00E94C44A80E298E10E94EB
:1039D000F64961E070E08AED99E10E941B4B8AE3B1
:1039E0000E94CB3D40918002509181026091820201
:1039F0007091830222E08AE098E00E94C44A80E24B
:103A000098E10E94F64961E070E08AED99E10E9438
:103A10001B4B8AE30E94CB3D63E171E081E098E0BB
:103A20000C94B4100E94435480E00E94D3408091D3
:103A3000A6059091A705A091A805B091A90580932E
:103A4000A5029093A602A093A702B093A80280912A
:103A5000AA059091AB05A091AC05B091AD058093FE
:103A6000A9029093AA02A093AB02B093AC028091FA
:103A7000AE059091AF05A091B005B091B1058093CE
:103A8000AD029093AE02A093AF02B093B0026091EA
:103A9000470D7091480D8091490D90914A0D0E94FB
:103AA000307B209118053091190540911A055091ED
:103AB0001B050E948F7B6093B1027093B2028093CA
:103AC000B3029093B40280914B0D90914C0DA09154
:103AD0004D0DB0914E0D8093B5029093B602A09318
:103AE000B702B093B8027DC7F2010081118110FFC7
:103AF00005C0828C738C948C658C08C080904B0DB3
:103B000070904C0D90904D0D60904E0D20E030E087
:103B1000A9016091B5027091B6028091B7029091AF
:103B2000B8020E942A7B87FD5CC7A8014074552714
:103B3000C80165E0969587956A95E1F7282F217071
:103B4000C80174E0969587957A95E1F7982F917062
:103B5000E3E016950795EA95E1F7E02FE17000FDA7
:103B600075C6911173C6211171C675C60E94435462
:103B70001092220DE0960FB6F894DEBF0FBECDBFB7
:103B8000DF91CF911F910F91FF90EF90DF90CF9039
:103B9000BF90AF909F908F907F906F905F904F906D
:103BA0003F902F900C94E44580E00E94524781E8BA
:103BB0009AE0B5C181E00E943C4BE091500DF0913C
:103BC000510D80810E948B558FE59AE0A8C10E941B
:103BD00079460E949758682F88E690E06EA70E9469
:103BE000567C6EA5681721F088E690E00E94717CF3
:103BF00080E092ECA1E0B0E08093890290938A0289
:103C0000A0938B02B0938C02109257051092580526
:103C10001092590510925A051092530510925405AE
:103C2000109255051092560580E090E0A0EAB2E4AB
:103C30008093010390930203A0930303B0930403C2
:103C40008093050390930603A0930703B0930803A2
:103C500080E090E0A8ECB3E48093090390930A031A
:103C6000A0930B03B0930C0380E090E0A0E8BFE3C7
:103C700080930D0390930E03A0930F03B093100352
:103C800080E090E0A8E4B3E48093CD029093CE026C
:103C9000A093CF02B093D0028093D1029093D2022E
:103CA000A093D302B093D40280E090E0A8ECB1E4FA
:103CB0008093D5029093D602A093D702B093D802F6
:103CC00000E010E020E232E40093960210939702A5
:103CD000209398023093990200939A0210939B02CA
:103CE00020939C0230939D0280E090E0A0EAB0E433
:103CF00080939E0290939F02A093A002B093A10292
:103D0000C12CD12C40EAE42E41E4F42EC092B7033A
:103D1000D092B803E092B903F092BA038AE999E924
:103D2000A9E9BEE38093B3039093B403A093B503D2
:103D3000B093B60380E090E0AAE7B4E48093F00289
:103D40009093F102A093F202B093F3028093F402F5
:103D50009093F502A093F602B093F70240E050E092
:103D600060E271E44093F8025093F9026093FA0222
:103D70007093FB028093E0029093E102A093E20231
:103D8000B093E3028093E4029093E502A093E602ED
:103D9000B093E7024093E8025093E9026093EA028D
:103DA0007093EB0210922A0410922B0410922C04B0
:103DB00010922D04109226041092270410922804C9
:103DC0001092290480E090E0A9E3B3E480932204F8
:103DD00090932304A0932404B093250410924E04DE
:103DE00010924F04109250041092510410924A0401
:103DF00010924B0410924C0410924D041092460401
:103E000010924704109248041092490410920D0237
:103E100010920E0210920F021092100280E090E0B9
:103E2000A8E4B2E48093130290931402A0931502C5
:103E3000B0931602C0921B02D0921C02E0921D02A7
:103E4000F0921E0280E090E4ACE9B5E480931702A2
:103E500090931802A0931902B0931A0283E0809302
:103E60002C028EEB90E0909379028093780286EE9C
:103E700080933F0288E28093400280E090E0A0EED1
:103E8000B0E48093410290934202A0934302B09326
:103E9000440280E090E0A0E0B0E48093450290937B
:103EA0004602A0934702B093480200934902109340
:103EB0004A0220934B0230934C028FEF80934D02C5
:103EC0001092050210920602109207021092080248
:103ED0001092010210920202109203021092040248
:103EE00021E030E0309324022093230226E930E0E1
:103EF0003093260220932502109228021092270266
:103F000080937E020E9479460E94AB42E091500D60
:103F1000F091510D80810E948B558BE09AE0E096E4
:103F20000FB6F894DEBF0FBECDBFDF91CF911F91CA
:103F30000F91FF90EF90DF90CF90BF90AF909F9048
:103F40008F907F906F905F904F903F902F900C9448
:103F5000324BD20112968D919C91139791FF0DC017
:103F6000F201E65BFF4F60817181828193810E9443
:103F700067767093BA026093B902F2014081518171
:103F8000209145048091240D9091250D52FF0CC085
:103F9000368D332311F0286001C0277F209345041C
:103FA000332329F0806104C0277F209345048F7E4E
:103FB0009093250D8093240D8091240D9091250DD3
:103FC0008AC0F201EE5AFF4F6081718144E150E0F6
:103FD00084ED94E00E946D781092E80402C5D2014D
:103FE0008C9183FF0EC01A968D919D910D90BC917E
:103FF000A02D8093D0049093D104A093D204B093C9
:10400000D304C090D004D090D104E090D204F090BA
:10401000D30420E030E048EC52E4C701B6010E942E
:10402000EB7618166CF480E090E0A8ECB2E4809394
:10403000D0049093D104A093D204B093D30411C0C0
:1040400020E030E0A901C701B6010E942A7B87FF6A
:1040500008C01092D0041092D1041092D204109291
:10406000D304F2018281938191FFBBC4E65BFF4FD1
:1040700060817181828193810E9467767093CF0401
:104080006093CE04AEC4D2012D913C91119732FFC2
:1040900011C05E964D915D916D917C91919780914B
:1040A0004504452B462B472B11F0806201C08F7DC4
:1040B0008093450433FF95C4F20142A153A164A14A
:1040C00075A18091240D9091250D452B462B472BF2
:1040D00011F0846001C08B7F9093250D8093240D97
:1040E00080C4D2018D919C91119792FF0CC05E9675
:1040F0008D919D910D90BC91A02D181619061A0650
:104100001B060CF44BC4C0903302D0903402E090F4
:104110003502F090360220E030E0A901C701B60177
:104120000E942A7B87FF0CC0F7FAF094F7F8F0940E
:10413000C0923302D0923402E0923502F0923602FD
:1041400089E292E0E0960FB6F894DEBF0FBECDBFD5
:10415000DF91CF911F910F91FF90EF90DF90CF9063
:10416000BF90AF909F908F907F906F905F904F9097
:104170003F902F900C946457F2018081918192FFBF
:1041800030C4668D89E690E00E94717C0E94975849
:10419000682F88E690E0E0960FB6F894DEBF0FBE79
:1041A000CDBFDF91CF911F910F91FF90EF90DF90E6
:1041B000CF90BF90AF909F908F907F906F905F90C7
:1041C0004F903F902F900C94717CD2018D919C91D7
:1041D00092FF1CC08BE49AE0E0960FB6F894DEBF25
:1041E0000FBECDBFDF91CF911F910F91FF90EF9048
:1041F000DF90CF90BF90AF909F908F907F906F9007
:104200005F904F903F902F900C94D94181E0809324
:10421000A20280916702867E809367028091AA0342
:104220008B7F8093AA0380911103877F0E9424468D
:1042300010925E0510925D058CE29AE0E0960FB652
:10424000F894DEBF0FBECDBFDF91CF911F910F91CC
:10425000FF90EF90DF90CF90BF90AF909F908F90A6
:104260007F906F905F904F903F902F900C94264BD3
:104270008091110382FFB5C31092A20288E792E0F9
:104280000E94F649C201E0960FB6F894DEBF0FBE59
:10429000CDBFDF91CF911F910F91FF90EF90DF90F5
:1042A000CF90BF90AF909F908F907F906F905F90D6
:1042B0004F903F902F900C943A3E0E9443540C94A0
:1042C0002612232B71F011E020E030E0A901F20169
:1042D000628D738D848D958D0E94EB7618160CF08F
:1042E00010E0E091500DF091510DD080D2015E961A
:1042F0006D917D918D919C9191970E94307BF2FC04
:104300002EC023C0232B81F011E020E030E0A90172
:10431000D2015A966D917D918D919C915D970E94ED
:10432000EB7618160CF010E0E091500DF091510D65
:10433000D080E858FF4F60817181072E000C880BF8
:10434000990B0E94307BEF2851F420E030E0A90166
:104350000E949B7500E0212F4D2D0C94A413F201B7
:10436000E25BFF4F2081318142815381F1CF232BCA
:1043700071F011E020E030E0A901F201628D738D4F
:10438000848D958D0E94EB7618160CF010E0D2010A
:104390005E966D917D918D919C9191970E94307B5D
:1043A000F2FC1DC024C0232B71F011E020E030E0AE
:1043B000A901F201628D738D848D958D0E94EB763B
:1043C00018160CF010E06091780270917902072EB7
:1043D000000C880B990B0E94307BEF2841F0F20112
:1043E000E25BFF4F208131814281538103C020E095
:1043F00030E0A9010E949B7500E0212F40E00C9461
:10440000A413892BB1F0D2015E968D919C915F9798
:1044100097FD08C08C018F3F910531F02CF00FEF14
:1044200010E002C000E010E0802F0E946674B80126
:104430003AC08FEF90E0EECF892B99F0F201868D94
:10444000978D0E940F75F201868D978DA0A1B1A165
:10445000892B8A2B8B2B41F48081918192FF04C0A0
:10446000C0C28FEF90E0EDCF8091C1038111B9C23E
:104470008FEFE0960FB6F894DEBF0FBECDBFDF9191
:10448000CF911F910F91FF90EF90DF90CF90BF9051
:10449000AF909F908F907F906F905F904F903F90E4
:1044A0002F900C94667489E892E00C94B41080E02C
:1044B00090E0E0960FB6F894DEBF0FBECDBFDF915F
:1044C000CF911F910F91FF90EF90DF90CF90BF9011
:1044D000AF909F908F907F906F905F904F903F90A4
:1044E0002F900C940F75F201868D978D11E020911D
:1044F0007802309179022817390709F410E0909377
:104500007902809378020C94601492FD02C00C949E
:104510007117F201668D778D82A193A10E94847C30
:104520000C947117223099F492FD02C00C9471170B
:10453000D2015E964D915D916D917C91919792968D
:104540008D919C9193970E947F7C0C9471172330DE
:1045500011F00C94711783FD02C00C947117F201D5
:10456000428553856485758582A193A10E94614629
:104570000C94711711E0D2015E964D915D916D9191
:104580007C919197452B462B472B09F410E083FF34
:1045900016C020E030E0A901F201628573858485B0
:1045A00095850E942A7B811105C060E0D201929618
:1045B0008C9103C062E0F20182A10E947F5D81E0E4
:1045C0000E940C5083E090E00E949D3FD2019296A1
:1045D0008C910E94285D1813F2CF03C2211431047C
:1045E00009F41AC18CA09DA0AEA0BFA0880E991E90
:1045F000AA1EBB1E2CA13DA14EA15FA1281B390BF9
:104600004A0B5B0BCA01B9012D813E814F81588550
:104610000E94877CA50194010E946A7589819A8114
:10462000AB81BC81820F931FA41FB51FAC01BD01DC
:104630004497A105B105B4F080914D0290E04497F4
:10464000092E000CAA0BBB0B49835A836B837C8316
:1046500084179507A607B7076CF489839A83AB8301
:10466000BC8308C024E130E040E050E029833A8375
:104670004B835C8320914D02422F469550E060E0D1
:1046800070E089819A81AB81BC81481759076A071C
:104690007B0784F4822F90E001979C01990F440BD3
:1046A000550B89819A81AB81BC81281B390B4A0B40
:1046B0005B0B04C029813A814B815C812D833E8351
:1046C0004F83588749815A816B817C8187ED97E0C0
:1046D0000E94034B4D815E816F81788582ED97E06A
:1046E0000E94034B22E04F85588969897A898BECB7
:1046F00097E00E94AB4A22E04B895C896D897E89F4
:1047000084EC97E00E94C44A33E0231631040CF491
:1047100083C06D817E818F8198850E94307B20E0EF
:1047200030E040E850E40E948F7B6B017C012F85D4
:10473000388949895A896B897C898D899E890E942B
:104740009A7520ED3FE049E450E40E948F7B9B0185
:10475000AC01C701B6010E94FF756B017C01C50168
:10476000B4010E94307B20E030E04AE754E40E942C
:10477000FF754B015C0122E0B701A6018EEB97E0CB
:104780000E94AB4A22E0B501A40188EB97E00E94A9
:10479000C44A2AE939E949E15FE3C701B6010E9449
:1047A0008F7B6B017C019B01AC010E949B75A50175
:1047B00094010E94FF75688F798F8A8F9B8FA50166
:1047C0009401C701B6010E948F7B20E030E040E0F9
:1047D0005EE30E948F7B6C8F7D8F8E8F9F8F8BEA25
:1047E00097E00E94264B22E0B701A60185EA97E0F8
:1047F0000E94C44A22E0488D598D6A8D7B8D8FE9D5
:1048000097E00E94C44A22E04C8D5D8D6E8D7F8DB5
:1048100089E997E00E94C44AE0912902F0E0E3545C
:10482000FC4F8D814981840F80835FEF251A350A03
:104830008B858F879C85988BAD85A98BBE85BA8B20
:1048400053014201E1E0EF8B0C94121A452B09F45D
:1048500092C080E004C0452B09F496C081E0A0908E
:10486000B102B090B202C090B302D090B4028111F4
:1048700003C02223A1F080E0E090AD02F090AE02F0
:104880000091AF021091B002E0923904F0923A0424
:1048900000933B0410933C0481110AC006C010EF42
:1048A000E12E13E2F12E04E719E49923A1F080E050
:1048B0002091A9023091AA024091AB025091AC0222
:1048C00020933504309336044093370450933804D2
:1048D000811107C004C020EF33E244E759E4EE231E
:1048E00089F06091A5027091A6028091A702909133
:1048F000A802609331047093320480933304909340
:10490000340404C060EF73E284E799E46F929F92ED
:104910007F928F920E942B608091B5029091B60297
:10492000A091B702B091B80280934B0D90934C0DBB
:10493000A0934D0DB0934E0D0F900F900F900F90D0
:1049400080E0E0960FB6F894DEBF0FBECDBFDF91DA
:10495000CF911F910F91FF90EF90DF90CF90BF907C
:10496000AF909F908F907F906F905F904F903F900F
:104970002F900C94D34030EFA32E33E2B32E34E7C4
:10498000C32E39E4D32E75CF80EFA82E83E2B82E44
:1049900084E7C82E89E4D82E81E06ECF0E94AE3D18
:1049A000C0903302D0903402E0903502F09036028D
:1049B00020E030E0A901C701B6010E94EB7618168D
:1049C00084F4F7FAF094F7F8F094C0923302D0929E
:1049D0003402E0923502F092360203C08F7E0C94CE
:1049E0002B13E0960FB6F894DEBF0FBECDBFDF915C
:1049F000CF911F910F91FF90EF90DF90CF90BF90DC
:104A0000AF909F908F907F906F905F904F903F906E
:104A10002F9008950895CF93DC011E968C911E97D8
:104A2000811117C01C96ED91FC911D97CF01019645
:104A30001D969C938E931C97C491C11107C0CD0104
:104A4000ED91FC910684F785E02D19958C2F90E06F
:104A500002C080E090E0CF910895FC01968581E04E
:104A60008927089581E0089580E00895FC019685E6
:104A700081E0892708950895DC011C968D919C9111
:104A80001D97DC01ED91FC910190F081E02D1994CE
:104A9000DC011C968D919C911D97DC01ED91FC91A0
:104AA0000680F781E02D1994DC011C968D919C9174
:104AB0001D97DC01ED91FC910480F581E02D1995A5
:104AC00021E0892B09F420E0822F089580E00895E9
:104AD00081E0089581E008950C94D1770C94D1770A
:104AE000FC01268521114AC021E02687E091C402FD
:104AF000A5ECB2E040E050E04E17CCF49A016D9185
:104B00007D914F5F5F4F68177907B1F7E150E093F0
:104B1000C402F0E0EE0FFF1FEB53FD4F40815181C7
:104B2000F901EE0FFF1FEB53FD4F51834083E091DE
:104B3000BB0220E02E17CCF4A22FAA0FBB0BA4546B
:104B4000BD4F4D915C9111974817590761F4E150A1
:104B5000E093BB02EE0FFF0BE454FD4F2081318147
:104B60002D933C9302C02F5FE5CF2091A30230919B
:104B7000A4022817390711F40C94F93D08952F92D7
:104B80003F924F925F926F927F928F929F92AF92DD
:104B9000BF92CF92DF92EF92FF920F931F93CF932A
:104BA000DF93CDB7DEB7C654D1090FB6F894DEBF98
:104BB0000FBECDBF082F6DAF8091AA038E7F80936B
:104BC000AA038FB7F8942091230D8FBF30E02031D6
:104BD000310524F080E00E940C50F3CF1091230D9A
:104BE000111141C08091EA049091EB04892BE1F509
:104BF0002DAD2223C9F124E087E731E067E0E0EA48
:104C0000CE2EE6E8DE2EEE24E394F12C215048F17E
:104C100090912405899FF0011124EE54FA4F3183BD
:104C2000608314822383C582D682E782F0869F5FE9
:104C3000903118F49093240502C0109224054091FD
:104C4000240D5091250D40615093250D4093240D66
:104C50004FB7F8949091230D9F5F9093230D4FBF12
:104C6000D5CF11E001C010E0309124053BA7232EE1
:104C7000312C011102C080E001C080E197E7929DD4
:104C8000F001939DF00D1124EE54FA4F81830DAD88
:104C9000002311F0108202C082E0808387E7829DAA
:104CA000F001839DF00D1124EE54FA4F14821092FE
:104CB0001C0510921D0510921E0510921F050091F3
:104CC000260D22960FAF22970091220D23960FAF4B
:104CD00023978090200590902105A0902205B09008
:104CE00023052091920230919302409194025091B9
:104CF000950227962CAF3DAF4EAF5FAF2797C09080
:104D0000AB03D090AC03E090AD03F090AE034BE268
:104D10005DE05AAF49AF8BE39DE09EAB8DAB0BA539
:104D2000A7E70A9FC00111249C012E543A4F3AA7CD
:104D300029A74CE055E05EA34DA3CE0141969CAF60
:104D40008BAF1CAA1BAA00E0DF0155962196BFAFCE
:104D5000AEAF21979F012C5F3F4F3AA329A33BA9F8
:104D60003EAFE9ADFAAD81919191A191B191FAAFC8
:104D7000E9AF8FA798ABA9ABBAABEDA9FEA980812B
:104D80009181A281B3812FA538A949A95AA9281BCD
:104D9000390B4A0B5B0BE9A5FAA5218732874387BC
:104DA0005487033009F047C02396FFAD2397F111D4
:104DB00042C02196AEADBFAD21976D917D918D9191
:104DC0009C910E94307B27962CAD3DAD4EAD5FADE2
:104DD00027970E948F7B9B01AC01C501B4010E9403
:104DE0009B754B015C010E9467762196EEADFFAD8D
:104DF000219760837183828393830E94307B2B0190
:104E00003C019B01AC01C501B4010E949A754B01A4
:104E10005C01ADA1BEA12D913D914D915C91C3016D
:104E2000B2010E948F7B9B01AC01C701B6010E94B9
:104E30009B756B017C01E9A5FAA581859285A38507
:104E4000B485B7FD0EC0A9A1BAA12C9181E090E074
:104E50000EAC02C0880F991F0A94E2F7822B8C9344
:104E60000DC0B095A095909581959F4FAF4FBF4FC6
:104E7000E9A5FAA581879287A387B487A9A5BAA5D2
:104E800019964D905D906D907C901C97C301B20176
:104E90000E94307BEDA1FEA12081318142815381AE
:104EA0000E948F7BABADBCAD6D937D938D939D9335
:104EB000BCAFABAF45284628472869F080E190E0B9
:104EC0000EAC02C0880F991F0A94E2F7E9A1FAA17B
:104ED0009081892B8083ADA9BEA92FA538A949A9A6
:104EE0005AA92D933D934D935D93BEABADAB0F5F30
:104EF000EBA9FCA93196FCABEBAB29A53AA52C5F3D
:104F00003F4F3AA729A74DA15EA14C5F5F4F5EA31B
:104F10004DA3043009F023CF809220059092210503
:104F2000A0922205B0922305C092AB03D092AC03AD
:104F3000E092AD03F092AE0387E7829DF001839D7E
:104F4000F00D1124EE54FA4F22960FAD22970283F2
:104F5000048109A7802F807FD1F4112311F40C94D0
:104F60002E331092230D1BA51093E90420914504C4
:104F70008091240D9091250D23FF02C0806101C016
:104F80008F7E9093250D8093240D0C942E33858570
:104F90009685A785B08921853285438554852DA3C3
:104FA0003EA34FA358A7281739074A075B07A4F465
:104FB0004189528963897489481759076A077B07B1
:104FC0005CF4458956896789708D481759076A07C7
:104FD0007B0714F481E034C087E7829DF001839D54
:104FE000F00D1124EE54FA4F81899289A389B48976
:104FF0000DA11EA12FA138A580179107A207B30705
:105000005CF4458956896789708D4017510762079E
:10501000730714F4138215C027E7229DF001239D26
:10502000F00D1124EE54FA4F458956896789708D29
:10503000481759076A077B0714F482E001C083E030
:10504000838327E7229DC001239D900D1124DC015D
:10505000AE54BA4F13962C91139714E02102800D91
:10506000911D1124FC01EE54FA4FC184D284E384D3
:10507000F484FD01ED58FF4FC082D182E282F382B9
:105080004D8C5E8C6F8C78A089A5807709F44CC01C
:1050900069897A898B899C898D889E88AF88B88C2C
:1050A0009B01AC010E948F7B69A37AA38BA39CA375
:1050B000A5019401C501B4010E948F7B9B01AC0145
:1050C00069A17AA18BA19CA10E949B754B015C01F7
:1050D00009A5E89477F806FF0EC0698D7A8D8B8D4F
:1050E0009C8D9B01AC010E948F7B9B01AC01C50193
:1050F000B4010E949B750E94F3765B018C01A301B1
:1051000092010E942A7B87FD02C02501380187E7B2
:10511000829DF001839DF00D1124E95FF94F4082DB
:105120005182628273820AC0AB5ABF4FB301A2019F
:105130007F774D935D936D937C93139787E7829D63
:10514000F001839DF00D1124E95FF94F20E034E276
:1051500044E75BE460817181828193810E948F7B4F
:1051600020914B0D30914C0D40914D0D50914E0DB5
:105170000E94FF754B015C018091230D8A3050F431
:1051800020E034E244E758E4C501B4010E942A7BE0
:1051900087FDA2C587E7829D8001839D100D1124A4
:1051A0000E541A4FC501B4010E946776D8011596B6
:1051B0006D937D938D939C931897C701B6010E94C0
:1051C000307B6BA77CA78DA79EA79B01AC01C50177
:1051D000B4010E94FF750E9467762B013C012BA54C
:1051E0003CA54DA55EA560E074E284E79BE40E94C7
:1051F000FF7569A37AA38BA39CA319A5107109A5B8
:1052000004FF20C029893A894B895C890E948F7BE1
:105210002091CD023091CE024091CF025091D00228
:105220000E94FF750E94677669837A838B839C83D3
:105230007301620146165706680679064CF46B0145
:105240007C0106C019821A821B821C8273016201D2
:1052500009A505FF22C02D893E894F89588D69A176
:105260007AA18BA19CA10E948F7B2091D1023091C9
:10527000D2024091D3025091D4020E94FF750E9445
:1052800067766D837E838F839887C616D706E80678
:10529000F9063CF46B017C0104C01D821E821F8252
:1052A000188609A506FF22C0298D3A8D4B8D5C8D8D
:1052B00069A17AA18BA19CA10E948F7B2091D5022C
:1052C0003091D6024091D7025091D8020E94FF75CA
:1052D0000E94677669877A878B879C87C616D70670
:1052E000E806F9063CF46B017C0104C019861A86B5
:1052F0001B861C8609A507FF22C02D8D3E8D4F8D74
:1053000058A169A17AA18BA19CA10E948F7B2091B9
:10531000D9023091DA024091DB025091DC020E9406
:10532000FF750E9467766D877E878F87988BC6167C
:10533000D706E806F9063CF46B017C0104C01D8623
:105340001E861F86188AC701B60121E9C21621E010
:10535000D206E104F10424F461E971E080E090E018
:1053600027E7229DF001239DF00D1124E55FF94F01
:105370006083718382839383641575058605970521
:1053800051F00E94307B2BA53CA54DA55EA50E9447
:105390008F7B4B015C01A501940160E074E284E71E
:1053A0009BE40E94FF756B017C011123D9F16DA173
:1053B0007EA18FA198A50E94307B9B01AC01C50105
:1053C000B4010E94FF750E94677669837A838B839C
:1053D0009C8329893A894B895C89C701B6010E945F
:1053E0008F7B29A52171203169F027E7229DF001EB
:1053F000239DF00D1124EE54FA4F61A772A783A7E5
:1054000094A71CC027E7229DF001239DF00D1124D5
:10541000EE54FA4FDC01CB01B05881A792A7A3A7A5
:10542000B4A70CC087E7829DF001839DF00D112485
:10543000EE54FA4F11A612A613A614A687E7829D72
:105440008001839D100D11240E541A4FD80114961B
:105450007C90149775FE2FC01D966D917D918D9156
:105460009C9150970E94307B9B01AC01C501B40117
:105470000E94FF750E9467766D837E838F83988775
:105480002D893E894F89588DC701B6010E948F7BB7
:10549000272D2272203231F0F80165A776A787A761
:1054A00090AB10C0DC01CB01B058F80185A796A7DE
:1054B000A7A7B0AB07C0D8019D961D921D921D9263
:1054C0001C92D09787E7829D8001839D100D112447
:1054D0000E541A4FF801748076FE2FC061897289CC
:1054E000838994890E94307B9B01AC01C501B40182
:1054F0000E94FF750E94677669877A878B879C87F1
:10550000298D3A8D4B8D5C8DC701B6010E948F7B32
:10551000272D2474203441F0D801D1966D937D93CA
:105520008D939C93D4970DC0DC01CB01B058F8014A
:1055300081AB92ABA3ABB4AB04C011AA12AA13AA5D
:1055400014AA87E7829D8001839D100D11240E54BB
:105550001A4FF801F481FBABF8787F2E2BA927FFB7
:105560002EC0D80155966D917D918D919C91589743
:105570000E94307B9B01AC01C501B4010E94FF7504
:105580000E9467766D877E878F87988B2D8D3E8DE5
:105590004F8D58A1C701B6010E948F7BB0E87B16E2
:1055A00031F0F80165AB76AB87AB90AF08C0DC019A
:1055B000CB01B058F80185AB96ABA7ABB0AF87E78E
:1055C000829D8001839D100D11240E541A4FF80105
:1055D000EB5AFF4F80809180A280B380A701960193
:1055E000C501B4010E948F7B69A77DA389A39BA7F6
:1055F000CB01A9A1BBA5F80181AF92AFA3AFB4AF16
:10560000F8E87F1619F00CEE14E002C00CEF14E07D
:105610001EAB0DABC12CD12C00E010E049EA742E7A
:105620005FE5652E63E6562E78E5472E3BA9232FCE
:1056300030E03CAF2BAF80E190E0002E02C0880F3D
:10564000991F0A94E2F74BAD5CAD84239523892B17
:1056500099F1E1E0F0E0EC0FFD1FEC0DFD1D608124
:105660007181828193810E94307B6FA778AB89AB77
:105670009AABEDA9FEA9EC0DFD1D608171818281BF
:1056800093810E942E7B9B01AC016FA578A989A90B
:105690009AA90E948F7B7B018FA799AF9B01AC01D8
:1056A000672D762D852D942D0E942A7B87FD04C0C1
:1056B0007E2C6F2C5FA449AC0F5F1F4F54E0C50ECA
:1056C000D11C0430110509F0B6CF27E7229DC00197
:1056D000239D900D11248C010E541A4FD80113965E
:1056E0002C91B4E02B02700111248E0D9F1DFC0142
:1056F000EE54FA4F81859285A385B485B595A7951B
:1057000097958795F80185A396A3A7A3B0A781A332
:1057100092A3A3A3B4A3858F968FA78FB0A3818FE5
:10572000928FA38FB48F6801FDE3CF0ED11C29A502
:105730003DA149A15BA560E070E080E89FE30E9485
:10574000FF75D6016D937D938D939C931397FE0106
:10575000EE0DFF1D61817281838194810E94307BF7
:105760009B01AC01672D762D852D942D0E94FF7530
:105770000E946C76F801EB59FF4F6083718382833E
:1057800093837801B9E6EB0EF11C0E942E7B20E09A
:1057900030E040E858E40E948F7B20E034E244E7A8
:1057A0005BE40E94FF750E946C76F7016083718351
:1057B00082839383A5019401C501B4010E949B7566
:1057C000272D362D452D542D0E948F7B29A53DA1D7
:1057D00049A15BA50E948F7B20E034E244E75BE4B3
:1057E0000E94FF752B013C01F801EF5BFF4F6083C6
:1057F00071838283938320E030E040E05FE3609137
:10580000B7037091B8038091B9039091BA030E94D5
:105810008F7B6B017C01FBA9F6FF4EC020E030E0DE
:1058200040E05FE36091B3037091B4038091B503EE
:105830009091B6030E948F7B962EA72EB82E892EAC
:105840008BA98073A9F1F80181A992A9A3A9B4A990
:105850008C019D013F770DAB1EAB2FAB38AF292DCF
:105860003A2D4B2D582D6DA97EA98FA998AD0E9478
:10587000EB7618160CF529A53DA149A15BA5692D6C
:105880007A2D8B2D982D0E948F7B2DA93EA94FA993
:1058900058AD0E94FF755B018C019B01AC01B60104
:1058A000C7010E942A7B87FD07C06501780104C0FB
:1058B000C92CDA2CEB2CF82C1BA917FF3EC0812F2A
:1058C0008077E091500DF091510D20E030E040E004
:1058D0005FE3882351F1638D748D858D968D0E94D1
:1058E0008F7B29A53DA149A15BA50E948F7B27E75E
:1058F000229DF001239DF00D1124EE54FA4F05A9CD
:1059000016A927A930ADA90198015F770E94FF75FC
:105910005B018C019B01AC01B601C7010E942A7B8F
:1059200087FD0BC06501780108C0638D748D858D7E
:10593000968D0E948F7B6B017C0129A53DA149A119
:105940005BA5B601C7010E942A7B87FD07C0B9A5E8
:10595000ADA109A10FA71BA51BAB04C0BC2DAD2D8C
:10596000EFA6FBAA27E7229DC001239D900D1124DD
:105970008E549A4F8C010F5A1F4F4B2F5A2F6FA5E1
:105980007BA9F80140835183628373837C01FDE42A
:10599000EF0EF11CF70140835183628373836C0126
:1059A000F9E4CF0ED11CF6014083518362837383E7
:1059B00080904B0D90904C0DA0904D0DB0904E0DE1
:1059C000A50194016B2F7A2F8FA59BA90E94EB76DE
:1059D00018168CF4D8018D929D92AD92BC921397BB
:1059E000F70180829182A282B382D6018D929D922C
:1059F000AD92BC92139787E7829D8001839D100D25
:105A000011240E541A4FF801E75BFF4F608171813A
:105A1000828193819B01AC010E948F7BA301920143
:105A20000E949B756B017C0129A53DA149A15BA545
:105A300069A57DA189A19BA50E948F7B9B01AC01DB
:105A4000C701B6010E94EB7687FD04C0F801818191
:105A50008260818317E7129DC001139D900D112470
:105A60008E549A4F7C01FDE6EF0EF11CFC01E75AC3
:105A7000FF4F208131814281538160E074E284EFE5
:105A800090E00E94967CD7012D933C938091240551
:105A9000E82FF0E0FAA7E9A71E9F90011F9F300DA5
:105AA000112489010E541A4F1CAB0BAB1FB71BA757
:105AB000F8942091E90490912405291731F02F30B2
:105AC00031F033243394320E03C0392E01C0312C0F
:105AD00040E050E0BA0127E73916C9F0239DF001F4
